{
  "_format": "hh-sol-artifact-1",
  "contractName": "MaintenanceRecord",
  "sourceName": "contracts/maintenanceRecord.sol",
  "abi": [
    {
      "anonymous": false,
      "inputs": [
        {
          "indexed": false,
          "internalType": "string",
          "name": "recordID",
          "type": "string"
        },
        {
          "indexed": false,
          "internalType": "string",
          "name": "vehicleID",
          "type": "string"
        },
        {
          "indexed": false,
          "internalType": "string",
          "name": "partID",
          "type": "string"
        },
        {
          "indexed": false,
          "internalType": "string",
          "name": "inspectionDate",
          "type": "string"
        },
        {
          "indexed": false,
          "internalType": "string",
          "name": "description",
          "type": "string"
        },
        {
          "indexed": false,
          "internalType": "string",
          "name": "mechanicID",
          "type": "string"
        },
        {
          "indexed": false,
          "internalType": "uint256",
          "name": "cost",
          "type": "uint256"
        },
        {
          "indexed": false,
          "internalType": "string",
          "name": "nextInspectionDate",
          "type": "string"
        }
      ],
      "name": "RecordRegistered",
      "type": "event"
    },
    {
      "inputs": [
        {
          "internalType": "string",
          "name": "_recordID",
          "type": "string"
        }
      ],
      "name": "getRecord",
      "outputs": [
        {
          "components": [
            {
              "internalType": "string",
              "name": "recordID",
              "type": "string"
            },
            {
              "internalType": "string",
              "name": "vehicleID",
              "type": "string"
            },
            {
              "internalType": "string",
              "name": "partID",
              "type": "string"
            },
            {
              "internalType": "string",
              "name": "inspectionDate",
              "type": "string"
            },
            {
              "internalType": "string",
              "name": "description",
              "type": "string"
            },
            {
              "internalType": "string",
              "name": "mechanicID",
              "type": "string"
            },
            {
              "internalType": "uint256",
              "name": "cost",
              "type": "uint256"
            },
            {
              "internalType": "string",
              "name": "nextInspectionDate",
              "type": "string"
            }
          ],
          "internalType": "struct MaintenanceRecord.Record",
          "name": "",
          "type": "tuple"
        }
      ],
      "stateMutability": "view",
      "type": "function"
    },
    {
      "inputs": [
        {
          "internalType": "string",
          "name": "",
          "type": "string"
        }
      ],
      "name": "records",
      "outputs": [
        {
          "internalType": "string",
          "name": "recordID",
          "type": "string"
        },
        {
          "internalType": "string",
          "name": "vehicleID",
          "type": "string"
        },
        {
          "internalType": "string",
          "name": "partID",
          "type": "string"
        },
        {
          "internalType": "string",
          "name": "inspectionDate",
          "type": "string"
        },
        {
          "internalType": "string",
          "name": "description",
          "type": "string"
        },
        {
          "internalType": "string",
          "name": "mechanicID",
          "type": "string"
        },
        {
          "internalType": "uint256",
          "name": "cost",
          "type": "uint256"
        },
        {
          "internalType": "string",
          "name": "nextInspectionDate",
          "type": "string"
        }
      ],
      "stateMutability": "view",
      "type": "function"
    },
    {
      "inputs": [
        {
          "internalType": "string",
          "name": "_recordID",
          "type": "string"
        },
        {
          "internalType": "string",
          "name": "_vehicleID",
          "type": "string"
        },
        {
          "internalType": "string",
          "name": "_partID",
          "type": "string"
        },
        {
          "internalType": "string",
          "name": "_inspectionDate",
          "type": "string"
        },
        {
          "internalType": "string",
          "name": "_description",
          "type": "string"
        },
        {
          "internalType": "string",
          "name": "_mechanicID",
          "type": "string"
        },
        {
          "internalType": "uint256",
          "name": "_cost",
          "type": "uint256"
        },
        {
          "internalType": "string",
          "name": "_nextInspectionDate",
          "type": "string"
        }
      ],
      "name": "registerRecord",
      "outputs": [],
      "stateMutability": "nonpayable",
      "type": "function"
    }
  ],
  "bytecode": "0x6080604052348015600f57600080fd5b506114da8061001f6000396000f3fe608060405234801561001057600080fd5b50600436106100415760003560e01c806311dd884514610046578063541e771d146100765780636a1a1901146100ad575b600080fd5b610060600480360381019061005b9190610c7c565b6100c9565b60405161006d9190610e37565b60405180910390f35b610090600480360381019061008b9190610c7c565b61050a565b6040516100a4989796959493929190610eb2565b60405180910390f35b6100c760048036038101906100c29190610f8d565b610920565b005b6100d1610add565b6000826040516100e19190611143565b90815260200160405180910390206040518061010001604052908160008201805461010b90611189565b80601f016020809104026020016040519081016040528092919081815260200182805461013790611189565b80156101845780601f1061015957610100808354040283529160200191610184565b820191906000526020600020905b81548152906001019060200180831161016757829003601f168201915b5050505050815260200160018201805461019d90611189565b80601f01602080910402602001604051908101604052809291908181526020018280546101c990611189565b80156102165780601f106101eb57610100808354040283529160200191610216565b820191906000526020600020905b8154815290600101906020018083116101f957829003601f168201915b5050505050815260200160028201805461022f90611189565b80601f016020809104026020016040519081016040528092919081815260200182805461025b90611189565b80156102a85780601f1061027d576101008083540402835291602001916102a8565b820191906000526020600020905b81548152906001019060200180831161028b57829003601f168201915b505050505081526020016003820180546102c190611189565b80601f01602080910402602001604051908101604052809291908181526020018280546102ed90611189565b801561033a5780601f1061030f5761010080835404028352916020019161033a565b820191906000526020600020905b81548152906001019060200180831161031d57829003601f168201915b5050505050815260200160048201805461035390611189565b80601f016020809104026020016040519081016040528092919081815260200182805461037f90611189565b80156103cc5780601f106103a1576101008083540402835291602001916103cc565b820191906000526020600020905b8154815290600101906020018083116103af57829003601f168201915b505050505081526020016005820180546103e590611189565b80601f016020809104026020016040519081016040528092919081815260200182805461041190611189565b801561045e5780601f106104335761010080835404028352916020019161045e565b820191906000526020600020905b81548152906001019060200180831161044157829003601f168201915b505050505081526020016006820154815260200160078201805461048190611189565b80601f01602080910402602001604051908101604052809291908181526020018280546104ad90611189565b80156104fa5780601f106104cf576101008083540402835291602001916104fa565b820191906000526020600020905b8154815290600101906020018083116104dd57829003601f168201915b5050505050815250509050919050565b60008180516020810182018051848252602083016020850120818352809550505050505060009150905080600001805461054390611189565b80601f016020809104026020016040519081016040528092919081815260200182805461056f90611189565b80156105bc5780601f10610591576101008083540402835291602001916105bc565b820191906000526020600020905b81548152906001019060200180831161059f57829003601f168201915b5050505050908060010180546105d190611189565b80601f01602080910402602001604051908101604052809291908181526020018280546105fd90611189565b801561064a5780601f1061061f5761010080835404028352916020019161064a565b820191906000526020600020905b81548152906001019060200180831161062d57829003601f168201915b50505050509080600201805461065f90611189565b80601f016020809104026020016040519081016040528092919081815260200182805461068b90611189565b80156106d85780601f106106ad576101008083540402835291602001916106d8565b820191906000526020600020905b8154815290600101906020018083116106bb57829003601f168201915b5050505050908060030180546106ed90611189565b80601f016020809104026020016040519081016040528092919081815260200182805461071990611189565b80156107665780601f1061073b57610100808354040283529160200191610766565b820191906000526020600020905b81548152906001019060200180831161074957829003601f168201915b50505050509080600401805461077b90611189565b80601f01602080910402602001604051908101604052809291908181526020018280546107a790611189565b80156107f45780601f106107c9576101008083540402835291602001916107f4565b820191906000526020600020905b8154815290600101906020018083116107d757829003601f168201915b50505050509080600501805461080990611189565b80601f016020809104026020016040519081016040528092919081815260200182805461083590611189565b80156108825780601f1061085757610100808354040283529160200191610882565b820191906000526020600020905b81548152906001019060200180831161086557829003601f168201915b50505050509080600601549080600701805461089d90611189565b80601f01602080910402602001604051908101604052809291908181526020018280546108c990611189565b80156109165780601f106108eb57610100808354040283529160200191610916565b820191906000526020600020905b8154815290600101906020018083116108f957829003601f168201915b5050505050905088565b600080896040516109319190611143565b9081526020016040518091039020600001805461094d90611189565b90501461098f576040517f08c379a000000000000000000000000000000000000000000000000000000000815260040161098690611206565b60405180910390fd5b604051806101000160405280898152602001888152602001878152602001868152602001858152602001848152602001838152602001828152506000896040516109d99190611143565b908152602001604051809103902060008201518160000190816109fc91906113d2565b506020820151816001019081610a1291906113d2565b506040820151816002019081610a2891906113d2565b506060820151816003019081610a3e91906113d2565b506080820151816004019081610a5491906113d2565b5060a0820151816005019081610a6a91906113d2565b5060c0820151816006015560e0820151816007019081610a8a91906113d2565b509050507f28394a4a40324181db65ec93a83f8b150f506ce75d365793b3dca981c476c0b18888888888888888604051610acb989796959493929190610eb2565b60405180910390a15050505050505050565b60405180610100016040528060608152602001606081526020016060815260200160608152602001606081526020016060815260200160008152602001606081525090565b6000604051905090565b600080fd5b600080fd5b600080fd5b600080fd5b6000601f19601f8301169050919050565b7f4e487b7100000000000000000000000000000000000000000000000000000000600052604160045260246000fd5b610b8982610b40565b810181811067ffffffffffffffff82111715610ba857610ba7610b51565b5b80604052505050565b6000610bbb610b22565b9050610bc78282610b80565b919050565b600067ffffffffffffffff821115610be757610be6610b51565b5b610bf082610b40565b9050602081019050919050565b82818337600083830152505050565b6000610c1f610c1a84610bcc565b610bb1565b905082815260208101848484011115610c3b57610c3a610b3b565b5b610c46848285610bfd565b509392505050565b600082601f830112610c6357610c62610b36565b5b8135610c73848260208601610c0c565b91505092915050565b600060208284031215610c9257610c91610b2c565b5b600082013567ffffffffffffffff811115610cb057610caf610b31565b5b610cbc84828501610c4e565b91505092915050565b600081519050919050565b600082825260208201905092915050565b60005b83811015610cff578082015181840152602081019050610ce4565b60008484015250505050565b6000610d1682610cc5565b610d208185610cd0565b9350610d30818560208601610ce1565b610d3981610b40565b840191505092915050565b6000819050919050565b610d5781610d44565b82525050565b6000610100830160008301518482036000860152610d7b8282610d0b565b91505060208301518482036020860152610d958282610d0b565b91505060408301518482036040860152610daf8282610d0b565b91505060608301518482036060860152610dc98282610d0b565b91505060808301518482036080860152610de38282610d0b565b91505060a083015184820360a0860152610dfd8282610d0b565b91505060c0830151610e1260c0860182610d4e565b5060e083015184820360e0860152610e2a8282610d0b565b9150508091505092915050565b60006020820190508181036000830152610e518184610d5d565b905092915050565b600082825260208201905092915050565b6000610e7582610cc5565b610e7f8185610e59565b9350610e8f818560208601610ce1565b610e9881610b40565b840191505092915050565b610eac81610d44565b82525050565b6000610100820190508181036000830152610ecd818b610e6a565b90508181036020830152610ee1818a610e6a565b90508181036040830152610ef58189610e6a565b90508181036060830152610f098188610e6a565b90508181036080830152610f1d8187610e6a565b905081810360a0830152610f318186610e6a565b9050610f4060c0830185610ea3565b81810360e0830152610f528184610e6a565b90509998505050505050505050565b610f6a81610d44565b8114610f7557600080fd5b50565b600081359050610f8781610f61565b92915050565b600080600080600080600080610100898b031215610fae57610fad610b2c565b5b600089013567ffffffffffffffff811115610fcc57610fcb610b31565b5b610fd88b828c01610c4e565b985050602089013567ffffffffffffffff811115610ff957610ff8610b31565b5b6110058b828c01610c4e565b975050604089013567ffffffffffffffff81111561102657611025610b31565b5b6110328b828c01610c4e565b965050606089013567ffffffffffffffff81111561105357611052610b31565b5b61105f8b828c01610c4e565b955050608089013567ffffffffffffffff8111156110805761107f610b31565b5b61108c8b828c01610c4e565b94505060a089013567ffffffffffffffff8111156110ad576110ac610b31565b5b6110b98b828c01610c4e565b93505060c06110ca8b828c01610f78565b92505060e089013567ffffffffffffffff8111156110eb576110ea610b31565b5b6110f78b828c01610c4e565b9150509295985092959890939650565b600081905092915050565b600061111d82610cc5565b6111278185611107565b9350611137818560208601610ce1565b80840191505092915050565b600061114f8284611112565b915081905092915050565b7f4e487b7100000000000000000000000000000000000000000000000000000000600052602260045260246000fd5b600060028204905060018216806111a157607f821691505b6020821081036111b4576111b361115a565b5b50919050565b7f5265636f726420616c7265616479206578697374730000000000000000000000600082015250565b60006111f0601583610e59565b91506111fb826111ba565b602082019050919050565b6000602082019050818103600083015261121f816111e3565b9050919050565b60008190508160005260206000209050919050565b60006020601f8301049050919050565b600082821b905092915050565b6000600883026112887fffffffffffffffffffffffffffffffffffffffffffffffffffffffffffffffff8261124b565b611292868361124b565b95508019841693508086168417925050509392505050565b6000819050919050565b60006112cf6112ca6112c584610d44565b6112aa565b610d44565b9050919050565b6000819050919050565b6112e9836112b4565b6112fd6112f5826112d6565b848454611258565b825550505050565b600090565b611312611305565b61131d8184846112e0565b505050565b5b818110156113415761133660008261130a565b600181019050611323565b5050565b601f8211156113865761135781611226565b6113608461123b565b8101602085101561136f578190505b61138361137b8561123b565b830182611322565b50505b505050565b600082821c905092915050565b60006113a96000198460080261138b565b1980831691505092915050565b60006113c28383611398565b9150826002028217905092915050565b6113db82610cc5565b67ffffffffffffffff8111156113f4576113f3610b51565b5b6113fe8254611189565b611409828285611345565b600060209050601f83116001811461143c576000841561142a578287015190505b61143485826113b6565b86555061149c565b601f19841661144a86611226565b60005b828110156114725784890151825560018201915060208501945060208101905061144d565b8683101561148f578489015161148b601f891682611398565b8355505b6001600288020188555050505b50505050505056fea2646970667358221220c9c06486030314d39e9e3a2661da1298c252a204413a155caf2f3a35e026e02764736f6c634300081c0033",
  "linkReferences": {},
  "deployedLinkReferences": {}
}