{
  "_format": "hh-sol-artifact-1",
  "contractName": "PartHistory",
  "sourceName": "contracts/PartHistory.sol",
  "abi": [
    {
      "anonymous": false,
      "inputs": [
        {
          "indexed": false,
          "internalType": "string",
          "name": "historyID",
          "type": "string"
        },
        {
          "indexed": false,
          "internalType": "string",
          "name": "partID",
          "type": "string"
        },
        {
          "indexed": false,
          "internalType": "string",
          "name": "vehicleID",
          "type": "string"
        },
        {
          "indexed": false,
          "internalType": "string",
          "name": "changeType",
          "type": "string"
        },
        {
          "indexed": false,
          "internalType": "string",
          "name": "changeDate",
          "type": "string"
        },
        {
          "indexed": false,
          "internalType": "string",
          "name": "reason",
          "type": "string"
        },
        {
          "indexed": false,
          "internalType": "string",
          "name": "relatedRecordID",
          "type": "string"
        }
      ],
      "name": "HistoryRecorded",
      "type": "event"
    },
    {
      "inputs": [
        {
          "internalType": "string",
          "name": "_historyID",
          "type": "string"
        }
      ],
      "name": "getHistory",
      "outputs": [
        {
          "components": [
            {
              "internalType": "string",
              "name": "historyID",
              "type": "string"
            },
            {
              "internalType": "string",
              "name": "partID",
              "type": "string"
            },
            {
              "internalType": "string",
              "name": "vehicleID",
              "type": "string"
            },
            {
              "internalType": "string",
              "name": "changeType",
              "type": "string"
            },
            {
              "internalType": "string",
              "name": "changeDate",
              "type": "string"
            },
            {
              "internalType": "string",
              "name": "reason",
              "type": "string"
            },
            {
              "internalType": "string",
              "name": "relatedRecordID",
              "type": "string"
            }
          ],
          "internalType": "struct PartHistory.History",
          "name": "",
          "type": "tuple"
        }
      ],
      "stateMutability": "view",
      "type": "function"
    },
    {
      "inputs": [
        {
          "internalType": "string",
          "name": "",
          "type": "string"
        }
      ],
      "name": "histories",
      "outputs": [
        {
          "internalType": "string",
          "name": "historyID",
          "type": "string"
        },
        {
          "internalType": "string",
          "name": "partID",
          "type": "string"
        },
        {
          "internalType": "string",
          "name": "vehicleID",
          "type": "string"
        },
        {
          "internalType": "string",
          "name": "changeType",
          "type": "string"
        },
        {
          "internalType": "string",
          "name": "changeDate",
          "type": "string"
        },
        {
          "internalType": "string",
          "name": "reason",
          "type": "string"
        },
        {
          "internalType": "string",
          "name": "relatedRecordID",
          "type": "string"
        }
      ],
      "stateMutability": "view",
      "type": "function"
    },
    {
      "inputs": [
        {
          "internalType": "string",
          "name": "_historyID",
          "type": "string"
        },
        {
          "internalType": "string",
          "name": "_partID",
          "type": "string"
        },
        {
          "internalType": "string",
          "name": "_vehicleID",
          "type": "string"
        },
        {
          "internalType": "string",
          "name": "_changeType",
          "type": "string"
        },
        {
          "internalType": "string",
          "name": "_changeDate",
          "type": "string"
        },
        {
          "internalType": "string",
          "name": "_reason",
          "type": "string"
        },
        {
          "internalType": "string",
          "name": "_relatedRecordID",
          "type": "string"
        }
      ],
      "name": "registerHistory",
      "outputs": [],
      "stateMutability": "nonpayable",
      "type": "function"
    }
  ],
  "bytecode": "0x6080604052348015600f57600080fd5b5061142b8061001f6000396000f3fe608060405234801561001057600080fd5b50600436106100415760003560e01c806394cb586c14610046578063bb077c6f1461007c578063e360736e14610098575b600080fd5b610060600480360381019061005b9190610c4e565b6100c8565b6040516100739796959493929190610d16565b60405180910390f35b61009660048036038101906100919190610db6565b6104d8565b005b6100b260048036038101906100ad9190610c4e565b610681565b6040516100bf919061102c565b60405180910390f35b6000818051602081018201805184825260208301602085012081835280955050505050506000915090508060000180546101019061107d565b80601f016020809104026020016040519081016040528092919081815260200182805461012d9061107d565b801561017a5780601f1061014f5761010080835404028352916020019161017a565b820191906000526020600020905b81548152906001019060200180831161015d57829003601f168201915b50505050509080600101805461018f9061107d565b80601f01602080910402602001604051908101604052809291908181526020018280546101bb9061107d565b80156102085780601f106101dd57610100808354040283529160200191610208565b820191906000526020600020905b8154815290600101906020018083116101eb57829003601f168201915b50505050509080600201805461021d9061107d565b80601f01602080910402602001604051908101604052809291908181526020018280546102499061107d565b80156102965780601f1061026b57610100808354040283529160200191610296565b820191906000526020600020905b81548152906001019060200180831161027957829003601f168201915b5050505050908060030180546102ab9061107d565b80601f01602080910402602001604051908101604052809291908181526020018280546102d79061107d565b80156103245780601f106102f957610100808354040283529160200191610324565b820191906000526020600020905b81548152906001019060200180831161030757829003601f168201915b5050505050908060040180546103399061107d565b80601f01602080910402602001604051908101604052809291908181526020018280546103659061107d565b80156103b25780601f10610387576101008083540402835291602001916103b2565b820191906000526020600020905b81548152906001019060200180831161039557829003601f168201915b5050505050908060050180546103c79061107d565b80601f01602080910402602001604051908101604052809291908181526020018280546103f39061107d565b80156104405780601f1061041557610100808354040283529160200191610440565b820191906000526020600020905b81548152906001019060200180831161042357829003601f168201915b5050505050908060060180546104559061107d565b80601f01602080910402602001604051908101604052809291908181526020018280546104819061107d565b80156104ce5780601f106104a3576101008083540402835291602001916104ce565b820191906000526020600020905b8154815290600101906020018083116104b157829003601f168201915b5050505050905087565b600080886040516104e991906110ea565b908152602001604051809103902060000180546105059061107d565b905014610547576040517f08c379a000000000000000000000000000000000000000000000000000000000815260040161053e9061114d565b60405180910390fd5b6040518060e001604052808881526020018781526020018681526020018581526020018481526020018381526020018281525060008860405161058a91906110ea565b908152602001604051809103902060008201518160000190816105ad9190611323565b5060208201518160010190816105c39190611323565b5060408201518160020190816105d99190611323565b5060608201518160030190816105ef9190611323565b5060808201518160040190816106059190611323565b5060a082015181600501908161061b9190611323565b5060c08201518160060190816106319190611323565b509050507f316ab7ec647c7baabfba591bb001d2e7dc56044292f17046076692bb35c0ed67878787878787876040516106709796959493929190610d16565b60405180910390a150505050505050565b610689610ab7565b60008260405161069991906110ea565b90815260200160405180910390206040518060e00160405290816000820180546106c29061107d565b80601f01602080910402602001604051908101604052809291908181526020018280546106ee9061107d565b801561073b5780601f106107105761010080835404028352916020019161073b565b820191906000526020600020905b81548152906001019060200180831161071e57829003601f168201915b505050505081526020016001820180546107549061107d565b80601f01602080910402602001604051908101604052809291908181526020018280546107809061107d565b80156107cd5780601f106107a2576101008083540402835291602001916107cd565b820191906000526020600020905b8154815290600101906020018083116107b057829003601f168201915b505050505081526020016002820180546107e69061107d565b80601f01602080910402602001604051908101604052809291908181526020018280546108129061107d565b801561085f5780601f106108345761010080835404028352916020019161085f565b820191906000526020600020905b81548152906001019060200180831161084257829003601f168201915b505050505081526020016003820180546108789061107d565b80601f01602080910402602001604051908101604052809291908181526020018280546108a49061107d565b80156108f15780601f106108c6576101008083540402835291602001916108f1565b820191906000526020600020905b8154815290600101906020018083116108d457829003601f168201915b5050505050815260200160048201805461090a9061107d565b80601f01602080910402602001604051908101604052809291908181526020018280546109369061107d565b80156109835780601f1061095857610100808354040283529160200191610983565b820191906000526020600020905b81548152906001019060200180831161096657829003601f168201915b5050505050815260200160058201805461099c9061107d565b80601f01602080910402602001604051908101604052809291908181526020018280546109c89061107d565b8015610a155780601f106109ea57610100808354040283529160200191610a15565b820191906000526020600020905b8154815290600101906020018083116109f857829003601f168201915b50505050508152602001600682018054610a2e9061107d565b80601f0160208091040260200160405190810160405280929190818152602001828054610a5a9061107d565b8015610aa75780601f10610a7c57610100808354040283529160200191610aa7565b820191906000526020600020905b815481529060010190602001808311610a8a57829003601f168201915b5050505050815250509050919050565b6040518060e00160405280606081526020016060815260200160608152602001606081526020016060815260200160608152602001606081525090565b6000604051905090565b600080fd5b600080fd5b600080fd5b600080fd5b6000601f19601f8301169050919050565b7f4e487b7100000000000000000000000000000000000000000000000000000000600052604160045260246000fd5b610b5b82610b12565b810181811067ffffffffffffffff82111715610b7a57610b79610b23565b5b80604052505050565b6000610b8d610af4565b9050610b998282610b52565b919050565b600067ffffffffffffffff821115610bb957610bb8610b23565b5b610bc282610b12565b9050602081019050919050565b82818337600083830152505050565b6000610bf1610bec84610b9e565b610b83565b905082815260208101848484011115610c0d57610c0c610b0d565b5b610c18848285610bcf565b509392505050565b600082601f830112610c3557610c34610b08565b5b8135610c45848260208601610bde565b91505092915050565b600060208284031215610c6457610c63610afe565b5b600082013567ffffffffffffffff811115610c8257610c81610b03565b5b610c8e84828501610c20565b91505092915050565b600081519050919050565b600082825260208201905092915050565b60005b83811015610cd1578082015181840152602081019050610cb6565b60008484015250505050565b6000610ce882610c97565b610cf28185610ca2565b9350610d02818560208601610cb3565b610d0b81610b12565b840191505092915050565b600060e0820190508181036000830152610d30818a610cdd565b90508181036020830152610d448189610cdd565b90508181036040830152610d588188610cdd565b90508181036060830152610d6c8187610cdd565b90508181036080830152610d808186610cdd565b905081810360a0830152610d948185610cdd565b905081810360c0830152610da88184610cdd565b905098975050505050505050565b600080600080600080600060e0888a031215610dd557610dd4610afe565b5b600088013567ffffffffffffffff811115610df357610df2610b03565b5b610dff8a828b01610c20565b975050602088013567ffffffffffffffff811115610e2057610e1f610b03565b5b610e2c8a828b01610c20565b965050604088013567ffffffffffffffff811115610e4d57610e4c610b03565b5b610e598a828b01610c20565b955050606088013567ffffffffffffffff811115610e7a57610e79610b03565b5b610e868a828b01610c20565b945050608088013567ffffffffffffffff811115610ea757610ea6610b03565b5b610eb38a828b01610c20565b93505060a088013567ffffffffffffffff811115610ed457610ed3610b03565b5b610ee08a828b01610c20565b92505060c088013567ffffffffffffffff811115610f0157610f00610b03565b5b610f0d8a828b01610c20565b91505092959891949750929550565b600082825260208201905092915050565b6000610f3882610c97565b610f428185610f1c565b9350610f52818560208601610cb3565b610f5b81610b12565b840191505092915050565b600060e0830160008301518482036000860152610f838282610f2d565b91505060208301518482036020860152610f9d8282610f2d565b91505060408301518482036040860152610fb78282610f2d565b91505060608301518482036060860152610fd18282610f2d565b91505060808301518482036080860152610feb8282610f2d565b91505060a083015184820360a08601526110058282610f2d565b91505060c083015184820360c086015261101f8282610f2d565b9150508091505092915050565b600060208201905081810360008301526110468184610f66565b905092915050565b7f4e487b7100000000000000000000000000000000000000000000000000000000600052602260045260246000fd5b6000600282049050600182168061109557607f821691505b6020821081036110a8576110a761104e565b5b50919050565b600081905092915050565b60006110c482610c97565b6110ce81856110ae565b93506110de818560208601610cb3565b80840191505092915050565b60006110f682846110b9565b915081905092915050565b7f486973746f727920616c72656164792065786973747300000000000000000000600082015250565b6000611137601683610ca2565b915061114282611101565b602082019050919050565b600060208201905081810360008301526111668161112a565b9050919050565b60008190508160005260206000209050919050565b60006020601f8301049050919050565b600082821b905092915050565b6000600883026111cf7fffffffffffffffffffffffffffffffffffffffffffffffffffffffffffffffff82611192565b6111d98683611192565b95508019841693508086168417925050509392505050565b6000819050919050565b6000819050919050565b600061122061121b611216846111f1565b6111fb565b6111f1565b9050919050565b6000819050919050565b61123a83611205565b61124e61124682611227565b84845461119f565b825550505050565b600090565b611263611256565b61126e818484611231565b505050565b5b818110156112925761128760008261125b565b600181019050611274565b5050565b601f8211156112d7576112a88161116d565b6112b184611182565b810160208510156112c0578190505b6112d46112cc85611182565b830182611273565b50505b505050565b600082821c905092915050565b60006112fa600019846008026112dc565b1980831691505092915050565b600061131383836112e9565b9150826002028217905092915050565b61132c82610c97565b67ffffffffffffffff81111561134557611344610b23565b5b61134f825461107d565b61135a828285611296565b600060209050601f83116001811461138d576000841561137b578287015190505b6113858582611307565b8655506113ed565b601f19841661139b8661116d565b60005b828110156113c35784890151825560018201915060208501945060208101905061139e565b868310156113e057848901516113dc601f8916826112e9565b8355505b6001600288020188555050505b50505050505056fea26469706673582212204570acab98adbca3116a4569fdbaa0672f7445c3724c4aab4a01394bb7432cb264736f6c634300081c0033",
  "linkReferences": {},
  "deployedLinkReferences": {}
}