{
  "_format": "hh-sol-artifact-1",
  "contractName": "PartRegistry",
  "sourceName": "contracts/PartRegistry.sol",
  "abi": [
    {
      "anonymous": false,
      "inputs": [
        {
          "indexed": false,
          "internalType": "string",
          "name": "partID",
          "type": "string"
        },
        {
          "indexed": false,
          "internalType": "string",
          "name": "partName",
          "type": "string"
        },
        {
          "indexed": false,
          "internalType": "string",
          "name": "manufacturer",
          "type": "string"
        },
        {
          "indexed": false,
          "internalType": "string",
          "name": "modelNumber",
          "type": "string"
        },
        {
          "indexed": false,
          "internalType": "string",
          "name": "vehicleID",
          "type": "string"
        },
        {
          "indexed": false,
          "internalType": "string",
          "name": "installationDate",
          "type": "string"
        },
        {
          "indexed": false,
          "internalType": "uint256",
          "name": "replacementCycle",
          "type": "uint256"
        },
        {
          "indexed": false,
          "internalType": "string",
          "name": "currentStatus",
          "type": "string"
        },
        {
          "indexed": false,
          "internalType": "string",
          "name": "lastInspectionDate",
          "type": "string"
        }
      ],
      "name": "PartRegistered",
      "type": "event"
    },
    {
      "inputs": [
        {
          "internalType": "string",
          "name": "_partID",
          "type": "string"
        }
      ],
      "name": "getPart",
      "outputs": [
        {
          "components": [
            {
              "internalType": "string",
              "name": "partID",
              "type": "string"
            },
            {
              "internalType": "string",
              "name": "partName",
              "type": "string"
            },
            {
              "internalType": "string",
              "name": "manufacturer",
              "type": "string"
            },
            {
              "internalType": "string",
              "name": "modelNumber",
              "type": "string"
            },
            {
              "internalType": "string",
              "name": "vehicleID",
              "type": "string"
            },
            {
              "internalType": "string",
              "name": "installationDate",
              "type": "string"
            },
            {
              "internalType": "uint256",
              "name": "replacementCycle",
              "type": "uint256"
            },
            {
              "internalType": "string",
              "name": "currentStatus",
              "type": "string"
            },
            {
              "internalType": "string",
              "name": "lastInspectionDate",
              "type": "string"
            }
          ],
          "internalType": "struct PartRegistry.Part",
          "name": "",
          "type": "tuple"
        }
      ],
      "stateMutability": "view",
      "type": "function"
    },
    {
      "inputs": [
        {
          "internalType": "string",
          "name": "",
          "type": "string"
        }
      ],
      "name": "parts",
      "outputs": [
        {
          "internalType": "string",
          "name": "partID",
          "type": "string"
        },
        {
          "internalType": "string",
          "name": "partName",
          "type": "string"
        },
        {
          "internalType": "string",
          "name": "manufacturer",
          "type": "string"
        },
        {
          "internalType": "string",
          "name": "modelNumber",
          "type": "string"
        },
        {
          "internalType": "string",
          "name": "vehicleID",
          "type": "string"
        },
        {
          "internalType": "string",
          "name": "installationDate",
          "type": "string"
        },
        {
          "internalType": "uint256",
          "name": "replacementCycle",
          "type": "uint256"
        },
        {
          "internalType": "string",
          "name": "currentStatus",
          "type": "string"
        },
        {
          "internalType": "string",
          "name": "lastInspectionDate",
          "type": "string"
        }
      ],
      "stateMutability": "view",
      "type": "function"
    },
    {
      "inputs": [
        {
          "internalType": "string",
          "name": "_partID",
          "type": "string"
        },
        {
          "internalType": "string",
          "name": "_partName",
          "type": "string"
        },
        {
          "internalType": "string",
          "name": "_manufacturer",
          "type": "string"
        },
        {
          "internalType": "string",
          "name": "_modelNumber",
          "type": "string"
        },
        {
          "internalType": "string",
          "name": "_vehicleID",
          "type": "string"
        },
        {
          "internalType": "string",
          "name": "_installationDate",
          "type": "string"
        },
        {
          "internalType": "uint256",
          "name": "_replacementCycle",
          "type": "uint256"
        },
        {
          "internalType": "string",
          "name": "_currentStatus",
          "type": "string"
        },
        {
          "internalType": "string",
          "name": "_lastInspectionDate",
          "type": "string"
        }
      ],
      "name": "registerPart",
      "outputs": [],
      "stateMutability": "nonpayable",
      "type": "function"
    }
  ],
  "bytecode": "0x6080604052348015600f57600080fd5b506116848061001f6000396000f3fe608060405234801561001057600080fd5b50600436106100415760003560e01c80639629e0fd14610046578063ab9f2cfe1461007e578063bcf7459a146100ae575b600080fd5b610060600480360381019061005b9190610dc4565b6100ca565b60405161007599989796959493929190610ea5565b60405180910390f35b61009860048036038101906100939190610dc4565b61056e565b6040516100a591906110b9565b60405180910390f35b6100c860048036038101906100c39190611107565b610a41565b005b600081805160208101820180518482526020830160208501208183528095505050505050600091509050806000018054610103906112e0565b80601f016020809104026020016040519081016040528092919081815260200182805461012f906112e0565b801561017c5780601f106101515761010080835404028352916020019161017c565b820191906000526020600020905b81548152906001019060200180831161015f57829003601f168201915b505050505090806001018054610191906112e0565b80601f01602080910402602001604051908101604052809291908181526020018280546101bd906112e0565b801561020a5780601f106101df5761010080835404028352916020019161020a565b820191906000526020600020905b8154815290600101906020018083116101ed57829003601f168201915b50505050509080600201805461021f906112e0565b80601f016020809104026020016040519081016040528092919081815260200182805461024b906112e0565b80156102985780601f1061026d57610100808354040283529160200191610298565b820191906000526020600020905b81548152906001019060200180831161027b57829003601f168201915b5050505050908060030180546102ad906112e0565b80601f01602080910402602001604051908101604052809291908181526020018280546102d9906112e0565b80156103265780601f106102fb57610100808354040283529160200191610326565b820191906000526020600020905b81548152906001019060200180831161030957829003601f168201915b50505050509080600401805461033b906112e0565b80601f0160208091040260200160405190810160405280929190818152602001828054610367906112e0565b80156103b45780601f10610389576101008083540402835291602001916103b4565b820191906000526020600020905b81548152906001019060200180831161039757829003601f168201915b5050505050908060050180546103c9906112e0565b80601f01602080910402602001604051908101604052809291908181526020018280546103f5906112e0565b80156104425780601f1061041757610100808354040283529160200191610442565b820191906000526020600020905b81548152906001019060200180831161042557829003601f168201915b50505050509080600601549080600701805461045d906112e0565b80601f0160208091040260200160405190810160405280929190818152602001828054610489906112e0565b80156104d65780601f106104ab576101008083540402835291602001916104d6565b820191906000526020600020905b8154815290600101906020018083116104b957829003601f168201915b5050505050908060080180546104eb906112e0565b80601f0160208091040260200160405190810160405280929190818152602001828054610517906112e0565b80156105645780601f1061053957610100808354040283529160200191610564565b820191906000526020600020905b81548152906001019060200180831161054757829003601f168201915b5050505050905089565b610576610c1e565b600082604051610586919061134d565b9081526020016040518091039020604051806101200160405290816000820180546105b0906112e0565b80601f01602080910402602001604051908101604052809291908181526020018280546105dc906112e0565b80156106295780601f106105fe57610100808354040283529160200191610629565b820191906000526020600020905b81548152906001019060200180831161060c57829003601f168201915b50505050508152602001600182018054610642906112e0565b80601f016020809104026020016040519081016040528092919081815260200182805461066e906112e0565b80156106bb5780601f10610690576101008083540402835291602001916106bb565b820191906000526020600020905b81548152906001019060200180831161069e57829003601f168201915b505050505081526020016002820180546106d4906112e0565b80601f0160208091040260200160405190810160405280929190818152602001828054610700906112e0565b801561074d5780601f106107225761010080835404028352916020019161074d565b820191906000526020600020905b81548152906001019060200180831161073057829003601f168201915b50505050508152602001600382018054610766906112e0565b80601f0160208091040260200160405190810160405280929190818152602001828054610792906112e0565b80156107df5780601f106107b4576101008083540402835291602001916107df565b820191906000526020600020905b8154815290600101906020018083116107c257829003601f168201915b505050505081526020016004820180546107f8906112e0565b80601f0160208091040260200160405190810160405280929190818152602001828054610824906112e0565b80156108715780601f1061084657610100808354040283529160200191610871565b820191906000526020600020905b81548152906001019060200180831161085457829003601f168201915b5050505050815260200160058201805461088a906112e0565b80601f01602080910402602001604051908101604052809291908181526020018280546108b6906112e0565b80156109035780601f106108d857610100808354040283529160200191610903565b820191906000526020600020905b8154815290600101906020018083116108e657829003601f168201915b5050505050815260200160068201548152602001600782018054610926906112e0565b80601f0160208091040260200160405190810160405280929190818152602001828054610952906112e0565b801561099f5780601f106109745761010080835404028352916020019161099f565b820191906000526020600020905b81548152906001019060200180831161098257829003601f168201915b505050505081526020016008820180546109b8906112e0565b80601f01602080910402602001604051908101604052809291908181526020018280546109e4906112e0565b8015610a315780601f10610a0657610100808354040283529160200191610a31565b820191906000526020600020905b815481529060010190602001808311610a1457829003601f168201915b5050505050815250509050919050565b6000808a604051610a52919061134d565b90815260200160405180910390206000018054610a6e906112e0565b905014610ab0576040517f08c379a0000000000000000000000000000000000000000000000000000000008152600401610aa7906113b0565b60405180910390fd5b6040518061012001604052808a81526020018981526020018881526020018781526020018681526020018581526020018481526020018381526020018281525060008a604051610b00919061134d565b90815260200160405180910390206000820151816000019081610b23919061157c565b506020820151816001019081610b39919061157c565b506040820151816002019081610b4f919061157c565b506060820151816003019081610b65919061157c565b506080820151816004019081610b7b919061157c565b5060a0820151816005019081610b91919061157c565b5060c0820151816006015560e0820151816007019081610bb1919061157c565b50610100820151816008019081610bc8919061157c565b509050507fe1d5b45ca3a96cb5fab341a8e9ef0000ecda466dac9425fa4edf9d321705f881898989898989898989604051610c0b99989796959493929190610ea5565b60405180910390a1505050505050505050565b6040518061012001604052806060815260200160608152602001606081526020016060815260200160608152602001606081526020016000815260200160608152602001606081525090565b6000604051905090565b600080fd5b600080fd5b600080fd5b600080fd5b6000601f19601f8301169050919050565b7f4e487b7100000000000000000000000000000000000000000000000000000000600052604160045260246000fd5b610cd182610c88565b810181811067ffffffffffffffff82111715610cf057610cef610c99565b5b80604052505050565b6000610d03610c6a565b9050610d0f8282610cc8565b919050565b600067ffffffffffffffff821115610d2f57610d2e610c99565b5b610d3882610c88565b9050602081019050919050565b82818337600083830152505050565b6000610d67610d6284610d14565b610cf9565b905082815260208101848484011115610d8357610d82610c83565b5b610d8e848285610d45565b509392505050565b600082601f830112610dab57610daa610c7e565b5b8135610dbb848260208601610d54565b91505092915050565b600060208284031215610dda57610dd9610c74565b5b600082013567ffffffffffffffff811115610df857610df7610c79565b5b610e0484828501610d96565b91505092915050565b600081519050919050565b600082825260208201905092915050565b60005b83811015610e47578082015181840152602081019050610e2c565b60008484015250505050565b6000610e5e82610e0d565b610e688185610e18565b9350610e78818560208601610e29565b610e8181610c88565b840191505092915050565b6000819050919050565b610e9f81610e8c565b82525050565b6000610120820190508181036000830152610ec0818c610e53565b90508181036020830152610ed4818b610e53565b90508181036040830152610ee8818a610e53565b90508181036060830152610efc8189610e53565b90508181036080830152610f108188610e53565b905081810360a0830152610f248187610e53565b9050610f3360c0830186610e96565b81810360e0830152610f458185610e53565b9050818103610100830152610f5a8184610e53565b90509a9950505050505050505050565b600082825260208201905092915050565b6000610f8682610e0d565b610f908185610f6a565b9350610fa0818560208601610e29565b610fa981610c88565b840191505092915050565b610fbd81610e8c565b82525050565b6000610120830160008301518482036000860152610fe18282610f7b565b91505060208301518482036020860152610ffb8282610f7b565b915050604083015184820360408601526110158282610f7b565b9150506060830151848203606086015261102f8282610f7b565b915050608083015184820360808601526110498282610f7b565b91505060a083015184820360a08601526110638282610f7b565b91505060c083015161107860c0860182610fb4565b5060e083015184820360e08601526110908282610f7b565b9150506101008301518482036101008601526110ac8282610f7b565b9150508091505092915050565b600060208201905081810360008301526110d38184610fc3565b905092915050565b6110e481610e8c565b81146110ef57600080fd5b50565b600081359050611101816110db565b92915050565b60008060008060008060008060006101208a8c03121561112a57611129610c74565b5b60008a013567ffffffffffffffff81111561114857611147610c79565b5b6111548c828d01610d96565b99505060208a013567ffffffffffffffff81111561117557611174610c79565b5b6111818c828d01610d96565b98505060408a013567ffffffffffffffff8111156111a2576111a1610c79565b5b6111ae8c828d01610d96565b97505060608a013567ffffffffffffffff8111156111cf576111ce610c79565b5b6111db8c828d01610d96565b96505060808a013567ffffffffffffffff8111156111fc576111fb610c79565b5b6112088c828d01610d96565b95505060a08a013567ffffffffffffffff81111561122957611228610c79565b5b6112358c828d01610d96565b94505060c06112468c828d016110f2565b93505060e08a013567ffffffffffffffff81111561126757611266610c79565b5b6112738c828d01610d96565b9250506101008a013567ffffffffffffffff81111561129557611294610c79565b5b6112a18c828d01610d96565b9150509295985092959850929598565b7f4e487b7100000000000000000000000000000000000000000000000000000000600052602260045260246000fd5b600060028204905060018216806112f857607f821691505b60208210810361130b5761130a6112b1565b5b50919050565b600081905092915050565b600061132782610e0d565b6113318185611311565b9350611341818560208601610e29565b80840191505092915050565b6000611359828461131c565b915081905092915050565b7f5061727420616c72656164792072656769737465726564000000000000000000600082015250565b600061139a601783610e18565b91506113a582611364565b602082019050919050565b600060208201905081810360008301526113c98161138d565b9050919050565b60008190508160005260206000209050919050565b60006020601f8301049050919050565b600082821b905092915050565b6000600883026114327fffffffffffffffffffffffffffffffffffffffffffffffffffffffffffffffff826113f5565b61143c86836113f5565b95508019841693508086168417925050509392505050565b6000819050919050565b600061147961147461146f84610e8c565b611454565b610e8c565b9050919050565b6000819050919050565b6114938361145e565b6114a761149f82611480565b848454611402565b825550505050565b600090565b6114bc6114af565b6114c781848461148a565b505050565b5b818110156114eb576114e06000826114b4565b6001810190506114cd565b5050565b601f82111561153057611501816113d0565b61150a846113e5565b81016020851015611519578190505b61152d611525856113e5565b8301826114cc565b50505b505050565b600082821c905092915050565b600061155360001984600802611535565b1980831691505092915050565b600061156c8383611542565b9150826002028217905092915050565b61158582610e0d565b67ffffffffffffffff81111561159e5761159d610c99565b5b6115a882546112e0565b6115b38282856114ef565b600060209050601f8311600181146115e657600084156115d4578287015190505b6115de8582611560565b865550611646565b601f1984166115f4866113d0565b60005b8281101561161c578489015182556001820191506020850194506020810190506115f7565b868310156116395784890151611635601f891682611542565b8355505b6001600288020188555050505b50505050505056fea264697066735822122052596ba9d18aef115474582c71e9872fa2927e7dde7b35419b51e53b9937af8f64736f6c634300081c0033",
  "linkReferences": {},
  "deployedLinkReferences": {}
}