{
  "_format": "hh-sol-artifact-1",
  "contractName": "VehicleRegistry",
  "sourceName": "contracts/VehicleRegistry.sol",
  "abi": [
    {
      "anonymous": false,
      "inputs": [
        {
          "indexed": false,
          "internalType": "string",
          "name": "vehicleID",
          "type": "string"
        },
        {
          "indexed": false,
          "internalType": "string",
          "name": "partName",
          "type": "string"
        },
        {
          "indexed": false,
          "internalType": "uint256",
          "name": "odometer",
          "type": "uint256"
        },
        {
          "indexed": false,
          "internalType": "uint256",
          "name": "timestamp",
          "type": "uint256"
        }
      ],
      "name": "MaintenanceAdded",
      "type": "event"
    },
    {
      "inputs": [
        {
          "internalType": "string",
          "name": "vehicleID",
          "type": "string"
        },
        {
          "internalType": "string",
          "name": "partName",
          "type": "string"
        },
        {
          "internalType": "uint256",
          "name": "odometer",
          "type": "uint256"
        }
      ],
      "name": "addMaintenance",
      "outputs": [],
      "stateMutability": "nonpayable",
      "type": "function"
    },
    {
      "inputs": [
        {
          "internalType": "string",
          "name": "vehicleID",
          "type": "string"
        }
      ],
      "name": "getMaintenanceRecords",
      "outputs": [
        {
          "components": [
            {
              "internalType": "string",
              "name": "vehicleID",
              "type": "string"
            },
            {
              "internalType": "string",
              "name": "partName",
              "type": "string"
            },
            {
              "internalType": "uint256",
              "name": "odometer",
              "type": "uint256"
            },
            {
              "internalType": "uint256",
              "name": "timestamp",
              "type": "uint256"
            }
          ],
          "internalType": "struct VehicleRegistry.MaintenanceRecord[]",
          "name": "",
          "type": "tuple[]"
        }
      ],
      "stateMutability": "view",
      "type": "function"
    },
    {
      "inputs": [
        {
          "internalType": "string",
          "name": "vehicleID",
          "type": "string"
        }
      ],
      "name": "getVehicle",
      "outputs": [
        {
          "internalType": "string",
          "name": "manufacture",
          "type": "string"
        },
        {
          "internalType": "string",
          "name": "model",
          "type": "string"
        },
        {
          "internalType": "uint256",
          "name": "year",
          "type": "uint256"
        },
        {
          "internalType": "address",
          "name": "ownerID",
          "type": "address"
        }
      ],
      "stateMutability": "view",
      "type": "function"
    },
    {
      "inputs": [
        {
          "internalType": "address",
          "name": "owner",
          "type": "address"
        }
      ],
      "name": "getVehiclesByOwner",
      "outputs": [
        {
          "internalType": "string[]",
          "name": "",
          "type": "string[]"
        }
      ],
      "stateMutability": "view",
      "type": "function"
    },
    {
      "inputs": [
        {
          "internalType": "address",
          "name": "",
          "type": "address"
        },
        {
          "internalType": "uint256",
          "name": "",
          "type": "uint256"
        }
      ],
      "name": "ownerVehicles",
      "outputs": [
        {
          "internalType": "string",
          "name": "",
          "type": "string"
        }
      ],
      "stateMutability": "view",
      "type": "function"
    },
    {
      "inputs": [
        {
          "internalType": "string",
          "name": "vehicleID",
          "type": "string"
        },
        {
          "internalType": "string",
          "name": "manufacture",
          "type": "string"
        },
        {
          "internalType": "string",
          "name": "model",
          "type": "string"
        },
        {
          "internalType": "uint256",
          "name": "year",
          "type": "uint256"
        },
        {
          "internalType": "address",
          "name": "ownerID",
          "type": "address"
        }
      ],
      "name": "registerVehicle",
      "outputs": [],
      "stateMutability": "nonpayable",
      "type": "function"
    },
    {
      "inputs": [
        {
          "internalType": "string",
          "name": "",
          "type": "string"
        },
        {
          "internalType": "uint256",
          "name": "",
          "type": "uint256"
        }
      ],
      "name": "vehicleMaintenances",
      "outputs": [
        {
          "internalType": "string",
          "name": "vehicleID",
          "type": "string"
        },
        {
          "internalType": "string",
          "name": "partName",
          "type": "string"
        },
        {
          "internalType": "uint256",
          "name": "odometer",
          "type": "uint256"
        },
        {
          "internalType": "uint256",
          "name": "timestamp",
          "type": "uint256"
        }
      ],
      "stateMutability": "view",
      "type": "function"
    },
    {
      "inputs": [
        {
          "internalType": "string",
          "name": "",
          "type": "string"
        }
      ],
      "name": "vehicles",
      "outputs": [
        {
          "internalType": "string",
          "name": "manufacture",
          "type": "string"
        },
        {
          "internalType": "string",
          "name": "model",
          "type": "string"
        },
        {
          "internalType": "uint256",
          "name": "year",
          "type": "uint256"
        },
        {
          "internalType": "address",
          "name": "ownerID",
          "type": "address"
        }
      ],
      "stateMutability": "view",
      "type": "function"
    }
  ],
  "bytecode": "0x6080604052348015600f57600080fd5b50611be68061001f6000396000f3fe608060405234801561001057600080fd5b50600436106100875760003560e01c8063976de5c51161005b578063976de5c51461013b578063b1133b461461016e578063d1bac5941461018a578063dd24a914146101bd57610087565b8062c64bd41461008c578063047fd579146100a8578063836f2c79146100db578063883f9bb01461010b575b600080fd5b6100a660048036038101906100a1919061100f565b6101ed565b005b6100c260048036038101906100bd919061109a565b610438565b6040516100d294939291906111b2565b60405180910390f35b6100f560048036038101906100f09190611231565b610612565b604051610102919061136a565b60405180910390f35b6101256004803603810190610120919061138c565b61072a565b60405161013291906113cc565b60405180910390f35b6101556004803603810190610150919061109a565b6107e3565b60405161016594939291906111b2565b60405180910390f35b610188600480360381019061018391906113ee565b610959565b005b6101a4600480360381019061019f91906114bd565b610b57565b6040516101b49493929190611519565b60405180910390f35b6101d760048036038101906101d2919061109a565b610cca565b6040516101e491906116a7565b60405180910390f35b600073ffffffffffffffffffffffffffffffffffffffff166000846040516102159190611705565b908152602001604051809103902060030160009054906101000a900473ffffffffffffffffffffffffffffffffffffffff1673ffffffffffffffffffffffffffffffffffffffff160361029d576040517f08c379a00000000000000000000000000000000000000000000000000000000081526004016102949061178e565b60405180910390fd5b3373ffffffffffffffffffffffffffffffffffffffff166000846040516102c49190611705565b908152602001604051809103902060030160009054906101000a900473ffffffffffffffffffffffffffffffffffffffff1673ffffffffffffffffffffffffffffffffffffffff161461034c576040517f08c379a000000000000000000000000000000000000000000000000000000000815260040161034390611820565b60405180910390fd5b60028360405161035c9190611705565b9081526020016040518091039020604051806080016040528085815260200184815260200183815260200142815250908060018154018082558091505060019003906000526020600020906004020160009091909190915060008201518160000190816103c99190611a4c565b5060208201518160010190816103df9190611a4c565b50604082015181600201556060820151816003015550507f02254a995b3619d6520da9d5d725f275eafae9a1d2553dfff597a0e1a4e075a38383834260405161042b9493929190611519565b60405180910390a1505050565b6060806000806000808660405161044f9190611705565b90815260200160405180910390206040518060800160405290816000820180546104789061186f565b80601f01602080910402602001604051908101604052809291908181526020018280546104a49061186f565b80156104f15780601f106104c6576101008083540402835291602001916104f1565b820191906000526020600020905b8154815290600101906020018083116104d457829003601f168201915b5050505050815260200160018201805461050a9061186f565b80601f01602080910402602001604051908101604052809291908181526020018280546105369061186f565b80156105835780601f1061055857610100808354040283529160200191610583565b820191906000526020600020905b81548152906001019060200180831161056657829003601f168201915b50505050508152602001600282015481526020016003820160009054906101000a900473ffffffffffffffffffffffffffffffffffffffff1673ffffffffffffffffffffffffffffffffffffffff1673ffffffffffffffffffffffffffffffffffffffff1681525050905080600001518160200151826040015183606001519450945094509450509193509193565b6060600160008373ffffffffffffffffffffffffffffffffffffffff1673ffffffffffffffffffffffffffffffffffffffff168152602001908152602001600020805480602002602001604051908101604052809291908181526020016000905b8282101561071f5783829060005260206000200180546106929061186f565b80601f01602080910402602001604051908101604052809291908181526020018280546106be9061186f565b801561070b5780601f106106e05761010080835404028352916020019161070b565b820191906000526020600020905b8154815290600101906020018083116106ee57829003601f168201915b505050505081526020019060010190610673565b505050509050919050565b6001602052816000526040600020818154811061074657600080fd5b906000526020600020016000915091505080546107629061186f565b80601f016020809104026020016040519081016040528092919081815260200182805461078e9061186f565b80156107db5780601f106107b0576101008083540402835291602001916107db565b820191906000526020600020905b8154815290600101906020018083116107be57829003601f168201915b505050505081565b60008180516020810182018051848252602083016020850120818352809550505050505060009150905080600001805461081c9061186f565b80601f01602080910402602001604051908101604052809291908181526020018280546108489061186f565b80156108955780601f1061086a57610100808354040283529160200191610895565b820191906000526020600020905b81548152906001019060200180831161087857829003601f168201915b5050505050908060010180546108aa9061186f565b80601f01602080910402602001604051908101604052809291908181526020018280546108d69061186f565b80156109235780601f106108f857610100808354040283529160200191610923565b820191906000526020600020905b81548152906001019060200180831161090657829003601f168201915b5050505050908060020154908060030160009054906101000a900473ffffffffffffffffffffffffffffffffffffffff16905084565b600073ffffffffffffffffffffffffffffffffffffffff166000866040516109819190611705565b908152602001604051809103902060030160009054906101000a900473ffffffffffffffffffffffffffffffffffffffff1673ffffffffffffffffffffffffffffffffffffffff1614610a09576040517f08c379a0000000000000000000000000000000000000000000000000000000008152600401610a0090611b90565b60405180910390fd5b60405180608001604052808581526020018481526020018381526020018273ffffffffffffffffffffffffffffffffffffffff16815250600086604051610a509190611705565b90815260200160405180910390206000820151816000019081610a739190611a4c565b506020820151816001019081610a899190611a4c565b506040820151816002015560608201518160030160006101000a81548173ffffffffffffffffffffffffffffffffffffffff021916908373ffffffffffffffffffffffffffffffffffffffff160217905550905050600160008273ffffffffffffffffffffffffffffffffffffffff1673ffffffffffffffffffffffffffffffffffffffff16815260200190815260200160002085908060018154018082558091505060019003906000526020600020016000909190919091509081610b4f9190611a4c565b505050505050565b6002828051602081018201805184825260208301602085012081835280955050505050508181548110610b8957600080fd5b906000526020600020906004020160009150915050806000018054610bad9061186f565b80601f0160208091040260200160405190810160405280929190818152602001828054610bd99061186f565b8015610c265780601f10610bfb57610100808354040283529160200191610c26565b820191906000526020600020905b815481529060010190602001808311610c0957829003601f168201915b505050505090806001018054610c3b9061186f565b80601f0160208091040260200160405190810160405280929190818152602001828054610c679061186f565b8015610cb45780601f10610c8957610100808354040283529160200191610cb4565b820191906000526020600020905b815481529060010190602001808311610c9757829003601f168201915b5050505050908060020154908060030154905084565b6060600282604051610cdc9190611705565b9081526020016040518091039020805480602002602001604051908101604052809291908181526020016000905b82821015610e745783829060005260206000209060040201604051806080016040529081600082018054610d3d9061186f565b80601f0160208091040260200160405190810160405280929190818152602001828054610d699061186f565b8015610db65780601f10610d8b57610100808354040283529160200191610db6565b820191906000526020600020905b815481529060010190602001808311610d9957829003601f168201915b50505050508152602001600182018054610dcf9061186f565b80601f0160208091040260200160405190810160405280929190818152602001828054610dfb9061186f565b8015610e485780601f10610e1d57610100808354040283529160200191610e48565b820191906000526020600020905b815481529060010190602001808311610e2b57829003601f168201915b505050505081526020016002820154815260200160038201548152505081526020019060010190610d0a565b505050509050919050565b6000604051905090565b600080fd5b600080fd5b600080fd5b600080fd5b6000601f19601f8301169050919050565b7f4e487b7100000000000000000000000000000000000000000000000000000000600052604160045260246000fd5b610ee682610e9d565b810181811067ffffffffffffffff82111715610f0557610f04610eae565b5b80604052505050565b6000610f18610e7f565b9050610f248282610edd565b919050565b600067ffffffffffffffff821115610f4457610f43610eae565b5b610f4d82610e9d565b9050602081019050919050565b82818337600083830152505050565b6000610f7c610f7784610f29565b610f0e565b905082815260208101848484011115610f9857610f97610e98565b5b610fa3848285610f5a565b509392505050565b600082601f830112610fc057610fbf610e93565b5b8135610fd0848260208601610f69565b91505092915050565b6000819050919050565b610fec81610fd9565b8114610ff757600080fd5b50565b60008135905061100981610fe3565b92915050565b60008060006060848603121561102857611027610e89565b5b600084013567ffffffffffffffff81111561104657611045610e8e565b5b61105286828701610fab565b935050602084013567ffffffffffffffff81111561107357611072610e8e565b5b61107f86828701610fab565b925050604061109086828701610ffa565b9150509250925092565b6000602082840312156110b0576110af610e89565b5b600082013567ffffffffffffffff8111156110ce576110cd610e8e565b5b6110da84828501610fab565b91505092915050565b600081519050919050565b600082825260208201905092915050565b60005b8381101561111d578082015181840152602081019050611102565b60008484015250505050565b6000611134826110e3565b61113e81856110ee565b935061114e8185602086016110ff565b61115781610e9d565b840191505092915050565b61116b81610fd9565b82525050565b600073ffffffffffffffffffffffffffffffffffffffff82169050919050565b600061119c82611171565b9050919050565b6111ac81611191565b82525050565b600060808201905081810360008301526111cc8187611129565b905081810360208301526111e08186611129565b90506111ef6040830185611162565b6111fc60608301846111a3565b95945050505050565b61120e81611191565b811461121957600080fd5b50565b60008135905061122b81611205565b92915050565b60006020828403121561124757611246610e89565b5b60006112558482850161121c565b91505092915050565b600081519050919050565b600082825260208201905092915050565b6000819050602082019050919050565b600082825260208201905092915050565b60006112a6826110e3565b6112b0818561128a565b93506112c08185602086016110ff565b6112c981610e9d565b840191505092915050565b60006112e0838361129b565b905092915050565b6000602082019050919050565b60006113008261125e565b61130a8185611269565b93508360208202850161131c8561127a565b8060005b85811015611358578484038952815161133985826112d4565b9450611344836112e8565b925060208a01995050600181019050611320565b50829750879550505050505092915050565b6000602082019050818103600083015261138481846112f5565b905092915050565b600080604083850312156113a3576113a2610e89565b5b60006113b18582860161121c565b92505060206113c285828601610ffa565b9150509250929050565b600060208201905081810360008301526113e68184611129565b905092915050565b600080600080600060a0868803121561140a57611409610e89565b5b600086013567ffffffffffffffff81111561142857611427610e8e565b5b61143488828901610fab565b955050602086013567ffffffffffffffff81111561145557611454610e8e565b5b61146188828901610fab565b945050604086013567ffffffffffffffff81111561148257611481610e8e565b5b61148e88828901610fab565b935050606061149f88828901610ffa565b92505060806114b08882890161121c565b9150509295509295909350565b600080604083850312156114d4576114d3610e89565b5b600083013567ffffffffffffffff8111156114f2576114f1610e8e565b5b6114fe85828601610fab565b925050602061150f85828601610ffa565b9150509250929050565b600060808201905081810360008301526115338187611129565b905081810360208301526115478186611129565b90506115566040830185611162565b6115636060830184611162565b95945050505050565b600081519050919050565b600082825260208201905092915050565b6000819050602082019050919050565b6115a181610fd9565b82525050565b600060808301600083015184820360008601526115c4828261129b565b915050602083015184820360208601526115de828261129b565b91505060408301516115f36040860182611598565b5060608301516116066060860182611598565b508091505092915050565b600061161d83836115a7565b905092915050565b6000602082019050919050565b600061163d8261156c565b6116478185611577565b93508360208202850161165985611588565b8060005b8581101561169557848403895281516116768582611611565b945061168183611625565b925060208a0199505060018101905061165d565b50829750879550505050505092915050565b600060208201905081810360008301526116c18184611632565b905092915050565b600081905092915050565b60006116df826110e3565b6116e981856116c9565b93506116f98185602086016110ff565b80840191505092915050565b600061171182846116d4565b915081905092915050565b7feca1b4ec9eaced9598eca78020ec958aeb8a9420ecb0a8eb9f89ec9e85eb8b8860008201527feb8ba42e00000000000000000000000000000000000000000000000000000000602082015250565b60006117786024836110ee565b91506117838261171c565b604082019050919050565b600060208201905081810360008301526117a78161176b565b9050919050565b7fec868cec9ca020ecb0a8eb9f89eba78c20eca095ebb98420ec9db4eba0a520eb60008201527f93b1eba19d20eab080eb8aa50000000000000000000000000000000000000000602082015250565b600061180a602c836110ee565b9150611815826117ae565b604082019050919050565b60006020820190508181036000830152611839816117fd565b9050919050565b7f4e487b7100000000000000000000000000000000000000000000000000000000600052602260045260246000fd5b6000600282049050600182168061188757607f821691505b60208210810361189a57611899611840565b5b50919050565b60008190508160005260206000209050919050565b60006020601f8301049050919050565b600082821b905092915050565b6000600883026119027fffffffffffffffffffffffffffffffffffffffffffffffffffffffffffffffff826118c5565b61190c86836118c5565b95508019841693508086168417925050509392505050565b6000819050919050565b600061194961194461193f84610fd9565b611924565b610fd9565b9050919050565b6000819050919050565b6119638361192e565b61197761196f82611950565b8484546118d2565b825550505050565b600090565b61198c61197f565b61199781848461195a565b505050565b5b818110156119bb576119b0600082611984565b60018101905061199d565b5050565b601f821115611a00576119d1816118a0565b6119da846118b5565b810160208510156119e9578190505b6119fd6119f5856118b5565b83018261199c565b50505b505050565b600082821c905092915050565b6000611a2360001984600802611a05565b1980831691505092915050565b6000611a3c8383611a12565b9150826002028217905092915050565b611a55826110e3565b67ffffffffffffffff811115611a6e57611a6d610eae565b5b611a78825461186f565b611a838282856119bf565b600060209050601f831160018114611ab65760008415611aa4578287015190505b611aae8582611a30565b865550611b16565b601f198416611ac4866118a0565b60005b82811015611aec57848901518255600182019150602085019450602081019050611ac7565b86831015611b095784890151611b05601f891682611a12565b8355505b6001600288020188555050505b505050505050565b7fec9db4ebafb820eb93b1eba19deb909c20ecb0a8eb9f89ec9e85eb8b88eb8ba460008201527f2e00000000000000000000000000000000000000000000000000000000000000602082015250565b6000611b7a6021836110ee565b9150611b8582611b1e565b604082019050919050565b60006020820190508181036000830152611ba981611b6d565b905091905056fea26469706673582212207e7e0f3931efafa46344a0f16ecfdb1d626504087003172f10c9055a92e34de964736f6c634300081c0033",
  "linkReferences": {},
  "deployedLinkReferences": {}
}